:100000000C9434000C943E000C943E000C943E0082
:100010000C943E000C943E000C943E000C943E0068
:100020000C943E000C943E000C943E000C943E0058
:100030000C943E000C943E000C943E000C943E0048
:100040000C943E000C943E000C943E000C943E0038
:100050000C943E000C943E000C943E000C943E0028
:100060000C943E000C943E0011241FBECFEFD8E04C
:10007000DEBFCDBF0E945F000C946E000C940000A8
:100080009093C5008093C400E1ECF0E0808188602B
:10009000808380818061808386E08093C2000895A0
:1000A0009091C00095FFFCCF8093C6000895809189
:1000B000C00087FFFCCF409A8091C60008958FE270
:1000C00090E00E944000389A0E9457000E94500021
:1000D00089E999E00197F1F700C0F6CFF894FFCFD6
:00000001FF
