:100000000C9434000C9449000C9449000C94490061
:100010000C9449000C9449000C9449000C9449003C
:100020000C9449000C9449000C9449000C9449002C
:100030000C9449000C9449000C9449000C9449001C
:100040000C9449000C9449000C9449000C9449000C
:100050000C9449000C9449000C9449000C944900FC
:100060000C9449000C94490011241FBECFEFD8E036
:10007000DEBFCDBF11E0A0E0B1E0E8E6F1E002C0F4
:1000800005900D92AA30B107D9F70E946A000C942E
:10009000B2000C9400009093C5008093C400E1EC82
:1000A000F0E080818860808380818061808386E049
:1000B0008093C20008959091C00095FFFCCF80937B
:1000C000C60008958091C00087FFFCCF409A8091C0
:1000D000C6000895CF93DF93CDB7DEB72A970FB64A
:1000E000F894DEBF0FBECDBF399A3A9A4198429834
:1000F0008FE290E00E944B00389A8EEF0E945B00E6
:1001000081E50E945B008FEF9FE50197F1F700C04A
:1001100000008AE0F82EE0E0F1E0DE0111968F2D7C
:1001200001900D928A95E1F78E010F5F1F4FF80144
:1001300081918F01882361F00E945B009FEFEFEFB8
:10014000F2E09150E040F040E1F700C000C0EFCF96
:10015000FFEF2FEF8DE1F15020408040E1F700C02C
:080160000000D9CFF894FFCF95
:0A01680031323334353637383900B0
:00000001FF
