:100000000C9449000C9466000C948D010C946600CD
:100010000C9466000C9466000C9466000C946600C8
:100020000C9466000C9466000C9466000C946600B8
:100030000C9466000C9466000C9466000C946600A8
:100040000C9466000C9466000C9466000C94660098
:100050000C9466000C9466000C9466000C94660088
:100060000C9466000C946600DA053B061C07EF074B
:1000700053080909E508E508E508E508E508E50885
:10008000E508E508E508E508E508E508E508E50808
:10009000D20311241FBECFEFD8E0DEBFCDBF12E0E8
:1000A000A0E0B1E0E8E5F2E102C005900D92A837CA
:1000B000B107D9F722E0A8E7B2E001C01D92AD393F
:1000C000B207E1F70E9474030C942A090C94000013
:1000D0009093C5008093C400E1ECF0E080818860DB
:1000E000808380818061808386E08093C200089550
:1000F0009091C00095FFFCCF8093C6000895809139
:10010000C00087FFFCCF409A8091C60008958EEF13
:100110000E94780081E50E9478008FEF9FE50197AB
:10012000F1F700C000000895809108019091090145
:10013000409178025091790284179507E9F48091F3
:10014000800290918102892B79F480917C029091B8
:100150007D02019690937D0280937C0281E090E085
:10016000909381028093800280910801909109010F
:1001700090930701809306018091080190910901F5
:1001800020910401309105018217930779F5809140
:100190000601909107018417950751F480917C0224
:1001A00090917D02019690937D0280937C0212C013
:1001B00080910601909107018217930759F0809171
:1001C0000601909107018417950721F010927D0296
:1001D00010927C028091080190910901909307018F
:1001E00080930601109281021092800260910801B2
:1001F00070910901809102019091030168177907BC
:1002000081F560910601709107016217730759F437
:1002100060917C0270917D026F5F7F4F70937D02D1
:1002200060937C0212C0609106017091070168170B
:10023000790759F060910601709107016217730701
:1002400021F010927D0210927C0260910801709161
:1002500009017093070160930601109281021092C8
:100260008002E0910801F091090160910001709114
:100270000101E617F70761F52091060130910701AA
:100280002817390751F480917C0290917D020196E4
:1002900090937D0280937C0212C0209106013091E0
:1002A00007012E173F0759F02091060130910701F1
:1002B0002817390721F010927D0210927C0280915C
:1002C000080190910901909307018093060120C0D5
:1002D000E0910801F0910901E417F507E9F0409178
:1002E00008015091090142175307B1F0209108010C
:1002F000309109012817390779F080910801909110
:1003000009018617970741F010927D0210927C0236
:10031000109281021092800208951F920F920FB6E0
:100320000F9211240F931F932F933F934F935F933B
:100330006F937F938F939F93AF93BF93EF93FF93AD
:10034000CF93DF93CDB7DEB7A497DEBFCDBF5F9A63
:100350005E9A28984D9910C081E090E09093090131
:1003600080930801409A23E383EB92E02150804080
:100370009040E1F788B118B81F9910C084E090E070
:100380009093090180930801409AA3E3B3EBE2E064
:10039000A150B040E040E1F788B118B8199910C0F9
:1003A00087E090E09093090180930801409AF3E37D
:1003B00023EB82E0F15020408040E1F788B118B88B
:1003C0001A9910C08BE090E0909309018093080186
:1003D000409A93E3A3EBB2E09150A040B040E1F724
:1003E00088B118B85F985E9A289A4D9910C082E03B
:1003F00090E09093090180930801409AE3E3F3EBC6
:1004000022E0E150F0402040E1F788B118B81F9990
:1004100010C085E090E09093090180930801409A14
:1004200083E393EBA2E081509040A040E1F788B1D4
:1004300018B8199910C088E090E090930901809352
:100440000801409AB3E3E3EBF2E0B150E040F04042
:10045000E1F788B118B81A990EC0109209011092EC
:100460000801409A23E383EB92E0215080409040C2
:10047000E1F788B118B85F9A5E98289A4D9910C034
:1004800083E090E09093090180930801409AA3E3F0
:10049000B3EBE2E0A150B040E040E1F788B118B81A
:1004A0001F9910C086E090E09093090180930801A5
:1004B000409AF3E323EB82E0F15020408040E1F7E3
:1004C00088B118B8199910C089E090E0909309019B
:1004D00080930801409A93E3A3EBB2E09150A040CF
:1004E000B040E1F788B118B81A9910C08CE090E0DC
:1004F0009093090180930801409AE3E3F3EB22E033
:10050000E150F0402040E1F788B118B85F985E985C
:10051000289880917E0290917F02019709F0C9C0CE
:1005200080910801909109010B97D9F48FEF9FE515
:100530000197F1F700C000006FE472E08EE892E0EE
:100540000E941809AFEFBFE51197F1F700C0000056
:100550008DE090E090930901809308018EE20E9463
:100560007800809108019091090180910801909193
:1005700009010C9799F080910801909109010B975E
:1005800069F080910801909109010D9739F08091EF
:10059000080190910901805D0E947800EFEFFFE56E
:1005A0003197F1F700C00000809108019091090196
:1005B0000C9731F180910801909109010B9701F19D
:1005C00080910801909109010D97D1F0419A809195
:1005D00008019091090120E230E03A832983805D8F
:1005E0008983BE016F5F7F4F8EE892E00E941809F9
:1005F0008FEF9FE50197F1F700C000004298419806
:1006000080910801909109010C9709F052C084E291
:10061000E3E5F2E0DE01119601900D928A95E1F793
:10062000AFEFBFE51197F1F700C00000419A61E517
:1006300072E08EE892E00E941809EFEFFFE5319733
:10064000F1F700C000000EE812E0D8018D918D0195
:10065000882319F00E947800F8CFBFEFEFEFF2E0A7
:10066000B150E040F040E1F700C000C08E010F5FE4
:100670001F4FD8018D918D01882319F00E947800B9
:10068000F8CFEFEFFFE53197F1F700C000008AE007
:100690000E9478008FEF9FE50197F1F700C00000FE
:1006A000429841988AE0EEE8F2E0DF011D928A95D7
:1006B000E9F7A4960FB6F894DEBF0FBECDBFDF9169
:1006C000CF91FF91EF91BF91AF919F918F917F91CA
:1006D0006F915F914F913F912F911F910F910F90CB
:1006E0000FBE0F901F901895CF93DF93CDB7DEB755
:1006F000A6970FB6F894DEBF0FBECDBF8FE290E095
:100700000E946800389A0E94870053985B9A82E0A2
:1007100080936900E99A7894399A3A9A4198429874
:100720003B9A549A209A569A579A5F985E982898BE
:10073000389A55982798219822985D9A2F9A299A45
:100740002A9A80917A0290917B02009739F484E191
:1007500090E0909383028093820206C0019721F477
:100760001092830210928202C12CD12C47E1442EB8
:1007700001E010E05EE0752E6AE0E62EF12C70E2FA
:10078000872E912CE5E05E2EFBE06F2EE091820239
:10079000F0918302E531F10508F017C5EC5CFF4FDD
:1007A0000C9412098EEF0E94780081E50E94780077
:1007B0008FEF9FE50197F1F700C0000084E1E4EAC4
:1007C000F1E0DE01119601900D928A95E1F7DE01CC
:1007D00011965D01F50181915F01882319F00E9456
:1007E0007800F8CF8EEF0E94780085E40E947800B0
:1007F00084E10E94780088E0E8EBF1E0DE015896A1
:1008000001900D928A95E1F79E01285E3F4F5901B4
:10081000D5018D915D01882319F00E947800F8CFF1
:100820008DE20E947800EFEFFFE53197F1F700C00D
:1008300000008DE20E9478008FEF9FE50197F1F7AD
:1008400000C000008DE20E947800AFEFBFE5119775
:10085000F1F700C000008DE20E947800EFEFFFE5A5
:100860003197F1F700C000008091080190910901D3
:100870000A97D1F380910801909109019093790230
:1008800080937802805D0E9478008FEF9FE501974A
:10089000F1F700C000000E948700F0920901E09289
:1008A0000801DE0111965D01F50181915F01882348
:1008B00019F00E947800F8CF8EEF0E94780085E44E
:1008C0000E94780084E10E9478009E01285E3F4FDC
:1008D0005901D5018D915D01882319F00E9478009E
:1008E000F8CF80917802805D0E947800EFEFFFE5FD
:1008F0003197F1F700C000008DE20E9478008FEF81
:100900009FE50197F1F700C000008DE20E9478009A
:10091000AFEFBFE51197F1F700C000008DE20E9434
:100920007800EFEFFFE53197F1F700C0000080910C
:100930000801909109010A97D1F3809108019091E3
:1009400009019093050180930401805D0E94780065
:100950008FEF9FE50197F1F700C000000E9487002C
:10096000F0920901E0920801DE0111965D01F501A6
:1009700081915F01882319F00E947800F8CF8EEFF3
:100980000E94780085E40E94780084E10E9478004B
:100990009E01285E3F4F5901D5018D915D0188234D
:1009A00019F00E947800F8CF80917802805D0E9453
:1009B0007800EFEFFFE53197F1F700C0000080917C
:1009C0000401805D0E9478008FEF9FE50197F1F7A9
:1009D00000C000008DE20E947800AFEFBFE51197E4
:1009E000F1F700C000008DE20E947800EFEFFFE514
:1009F0003197F1F700C00000809108019091090142
:100A00000A97D1F380910801909109019093030115
:100A100080930201805D0E9478008FEF9FE501972F
:100A2000F1F700C000000E948700F0920901E092F7
:100A30000801DE0111965D01F50181915F018823B6
:100A400019F00E947800F8CF8EEF0E94780085E4BC
:100A50000E94780084E10E9478009E01285E3F4F4A
:100A60005901D5018D915D01882319F00E9478000C
:100A7000F8CF80917802805D0E947800EFEFFFE56B
:100A80003197F1F700C0000080910401805D0E9461
:100A900078008FEF9FE50197F1F700C0000080918B
:100AA0000201805D0E947800AFEFBFE51197F1F77A
:100AB00000C000008DE20E947800EFEFFFE5319763
:100AC000F1F700C0000080910801909109010A9798
:100AD000D1F38091080190910901909301018093D5
:100AE0000001805D0E9478008FEF9FE50197F1F78C
:100AF00000C000000E948700DE0111965D01F50133
:100B000081915F01882319F00E947800F8CF8EEF61
:100B10000E94780085E40E94780084E10E947800B9
:100B20009E01285E3F4F5901D5018D915D018823BB
:100B300019F00E947800F8CF80917802805D0E94C1
:100B40007800EFEFFFE53197F1F700C000008091EA
:100B50000401805D0E9478008FEF9FE50197F1F717
:100B600000C0000080910201805D0E947800AFEF1C
:100B7000BFE51197F1F700C0000080910001805D92
:100B80000E947800EFEFFFE53197F1F700C0000019
:100B9000FFEF2FEF3EE0F15020403040E1F700C082
:100BA000000010937B0200937A02F0920901E09218
:100BB000080133C30E9487008FE0E0ECF1E0DE0122
:100BC000589601900D928A95E1F7CE0148965C0106
:100BD000D5018D915D01882319F00E947800F8CF2E
:100BE000E9E9F9E03197F1F700C080917C0290913A
:100BF0007D02049741F089E999E00197F1F700C07F
:100C00000E949400F2CF85E090E0409AAFEFBFEFF2
:100C1000E2E0A150B040E040E1F700C000C028B1E0
:100C200018B8FFEF2FEF32E0F15020403040E1F7ED
:100C300000C000C00197009741F70E94870081E142
:100C4000EFECF1E0DE01119601900D928A95E1F74B
:100C5000CE0101965C01D5018D915D01882319F0CB
:100C60000E947800F8CFBFEFEFEFF8E0B150E0401E
:100C7000F040E1F7C7C20E9487001092090110926C
:100C80000801C114D10409F588E0E0EEF1E0DE01CD
:100C9000119601900D928A95E1F79E012F5F3F4FCB
:100CA0006901D6018D916D01882319F00E947800A9
:100CB000F8CFBFEFEFEFFEE0B150E040F040E1F7DA
:100CC00000C00000CC24C394D12C0E948700109255
:100CD000090110920801E8EEF1E0DE011196872D7E
:100CE00001900D928A95E1F78AE0E6EFF1E0DE01EE
:100CF000589601900D928A95E1F79E012F5F3F4F24
:100D00005901D5018D915D01882319F00E94780069
:100D1000F8CF8EEF0E94780085E40E94780080E48E
:100D20000E947800FE0178965F01D5018D915D01EA
:100D3000882319F00E947800F8CFBFEFEFEFFEE0B4
:100D4000B150E040F040E1F700C000000E94870091
:100D50006AE071E0CE0101960E94230962E171E030
:100D6000CE0148960E9423099E012F5F3F4F5901F3
:100D7000D5018D915D01882319F00E947800F8CF8C
:100D80008EEF0E94780085E40E94780080E40E9443
:100D90007800FE0178965F01D5018D915D01882371
:100DA00019F00E947800F8CF6DE171E0CE01019654
:100DB0000E9423098EEF0E94780085E40E9478004B
:100DC00084E10E947800FE0131965F01D5018D918A
:100DD0005D01882319F00E947800F8CF6AE271E083
:100DE000CE0101960E9423098EEF0E94780085E4CF
:100DF0000E94780084E50E947800FE0131965F0130
:100E0000D5018D915D01882319F00E947800F8CFFB
:100E10008091080190910901892BD1F3E9E9F9E06A
:100E20003197F1F700C080910801909109019093EA
:100E3000830280938202AACC419A83E70E947800C1
:100E40008FEF9FE50197F1F700C0000041980E94E5
:100E50008700E0E0F2E0DE015896862D01900D92C9
:100E60008A95E1F7DE0158965D01F50181915F01F8
:100E7000882319F00E947800F8CFFFEF2FEF3EE0B3
:100E8000F15020403040E1F700C000000E94870090
:100E900081E1EBE0F2E0DE01119601900D928A957E
:100EA000E1F7CE0101965C01D5018D915D018823AA
:100EB00019F00E947800F8CF62E371E0CE0101964C
:100EC0000E9423098EEF0E94780085E40E9478003A
:100ED00080E40E947800FE0131965F01D5018D917A
:100EE0005D01882319F00E947800F8CF10937F02EB
:100EF00000937E028EEF0E94780085E40E947800C5
:100F000084E50E94780080910801909109010C9776
:100F1000D1F70E94870065E471E0CE0101960E943E
:100F20002309FE0131965F01D5018D915D01882372
:100F300019F00E947800F8CFBFEFEFEFFDE1B1505C
:100F4000E040F040E1F700C000000E94870069E542
:100F500071E0CE0101960E9423099E012F5F3F4F51
:100F60005901D5018D915D01882319F00E94780007
:100F7000F8CF26E0A22EB12C8EE20E947800BFEFBF
:100F8000EFEFF2E0B150E040F040E1F700C000C008
:100F900021E0A21AB108A114B10471F70E948700E0
:100FA00061E671E0CE0101960E942309CE0101960F
:100FB0005C01D5018D915D01882319F00E947800B4
:100FC000F8CFBFEFEFEFFDE1B150E040F040E1F7C7
:100FD00000C0000010927F0210927E0215C10E9494
:100FE0008700ECE1F2E0DE011196872D01900D9271
:100FF0008A95E1F79E012F5F3F4F5901D5018D91F1
:101000005D01882319F00E947800F8CFBFEFEFEF61
:10101000FEE0B150E040F040E1F700C000000E9467
:10102000870066E671E0CE0101960E9423099E01C9
:101030002F5F3F4F5901D5018D915D01882319F034
:101040000E947800F8CF8EEF0E94780085E40E941D
:10105000780084E10E94780068E771E0CE01019693
:101060000E942309FE0131965F01D5018D915D013A
:10107000882319F00E947800F8CF8EEF0E94780044
:1010800085E40E94780084E50E94780064E672E0BE
:10109000CE0101960E9423098091080190910901D7
:1010A0000C97D1F7B1C0419A83E60E947800EFEF28
:1010B000FFE53197F1F700C0000041980E948700DA
:1010C000EAE2F2E0DE011196872D01900D928A95F9
:1010D000E1F79E012F5F3F4F5901D5018D915D01D1
:1010E000882319F00E947800F8CFBFEFEFEFF7E107
:1010F000B150E040F040E1F700C000C00E9487001E
:101100006AE871E0CE0101960E9423099E012F5FDB
:101110003F4F5901D5018D915D01882319F00E943F
:101120007800F8CF419A9AE0A92EB12C0E947F0056
:10113000382EEFEFFFE53197F1F700C000000E9475
:1011400078008FEF9FE50197F1F700C00000998EBE
:10115000888E388EBE01685E7F4F88E992E00E94DB
:10116000180991E0A91AB108A114B104F9F641983F
:101170000E94870088E9A82E82E0B82ED5018D91C3
:101180005D01882319F00E947800F8CF6EE971E0C4
:10119000CE0101960E942309FE0131965F01D5011F
:1011A0008D915D01882319F00E947800F8CF80911D
:1011B0000801909109010C97D1F7E8E9F2E0DF010D
:1011C000252D1D922A95E9F71FC00E948700E8E3AC
:1011D000F2E0DE011196842D01900D928A95E1F7DF
:1011E000CE0101965C01D5018D915D01882319F036
:1011F0000E947800F8CFBFEFEFEFFBE3B150E04083
:10120000F040E1F700C000001093830200938202D7
:10121000BDCA10927D0210927C021092830210923D
:101220008202B4CAEE0FFF1F0590F491E02D0994DD
:10123000FB01DC010D900020E9F7119701900D9260
:101240000020E1F70895FB01DC0101900D920020E0
:08125000E1F70895F894FFCFC7
:101258000900070002000A000A00323A2053656EAE
:101268006400333A205265636965766500343A2034
:10127800436865636B2042616C00353A204C6F63AC
:101288006B00796F752764206C696B6520746F201B
:1012980073656E640054617020666F7220416464E7
:1012A80072657373204E6F770073656E64696E673D
:1012B80000646F6E6500596F7572204164647265D1
:1012C80073732069733A2000324D79575054705A1D
:1012D8005063376A47466F77390047657474696E9B
:1012E800672062616C616E6365206E6F77002020F5
:1012F8004554480043726561746520506173736397
:101308006F6465206E6F7700202020202020200049
:10131800456E7465722050617373636F6465005025
:10132800617373636F646520436F727265637400E1
:1013380057656C636F6D6500506C656173652073EC
:10134800656C65637400616E206F7074696F6E0000
:1013580053656E64204D6F6E657900456E746572D5
:101368002074686520616D6F756E740052656365E1
:10137800697665204D6F6E657900436865636B20FB
:1013880042616C616E636500202020204E6F7420DE
:10139800612076616C6964206F7074696F6E002ECD
:1013A800000A00324D79575054705A5063376A47D3
:1013B800466F77394A72467577773131394C344AF6
:0813C8007834766870580000CB
:00000001FF
